:080000006F60003B00000000EE
:10000800B71402409305E0408CC483A20400370370
:100018000001B3E2620023A0540083A30400370E5A
:100028000002B3F3C301E38A03FE83AE8400370FF3
:100038000080B3EEEE0123A4D401894F23A2F4017A
:1000480003A94400A14933793901E30B09FE1305DB
:10005800C00E9705FFFF9385E5FA1766FFFF1306A5
:10006800A62663FAC5008322050023A055001105C2
:100078009105E3EAC5FE1765EFDF1305E53B9765D4
:10008800FFFF938565241766FFFF1306E62363FACF
:10009800C5008322050023A0550011059105E3EA58
:1000A800C5FE1765EFDF1305253997050000938511
:1000B80065051386819563FAC5008322050023A090
:1000C800550011059105E3EAC5FE138581959385D1
:1000D800C1B86377B500232005001105E36DB5FEAF
:0400E8008280000012
:1000EC00000000000000000000031020020310209C
:1000FC00000000009E0C102000000000000000001A
:10010C009E0C10209E0C102000000000000000002F
:10011C009E0C10209E0C10209E0C10200000000045
:10012C009E0C10209E0C10209E0C10209E0C10205B
:10013C0000000000000000000000000000000000B3
:10014C0000000000000000000000000000000000A3
:10015C009E0C1020000000000000000000000000B9
:10016C009E0C10209E0C10209E0C10209E0C10201B
:10017C009E0C10209E0C10209E0C10209E0C10200B
:10018C009E0C10209E0C10209E0C10209E0C1020FB
:10019C009E0C10209E0C10209E0C10209E0C1020EB
:1001AC009E0C10209E0C10209E0C10209E0C1020DB
:1001BC009E0C10209E0C10209E0C10209E0C1020CB
:1001CC009E0C10209E0C10209E0C10209E0C1020BB
:1001DC009E0C10209E0C10209E0C10209E0C1020AB
:1001EC009E0C10209E0C10209E0C10209E0C10209B
:1001FC009E0C10209E0C10209E0C10209E0C10208B
:10020C009E0C10209E0C10209E0C10209E0C10207A
:10021C009E0C10209E0C10209E0C10209E0C10206A
:10022C009E0C10209E0C10209E0C10209E0C10205A
:10023C009E0C10209E0C10209E0C10209E0C10204A
:10024C009E0C10209E0C10209E0C10209E0C10203A
:10025C009E0C10209E0C10209E0C10209E0C10202A
:10026C009E0C10209E0C10209E0C10209E0C10201A
:10027C00DC0310209E0C10209E0C10209E0C1020D5
:10028C009E0C10209E0C10209E0C10209E0C1020FA
:10029C009E0C10209E0C10209E0C10209E0C1020EA
:1002AC009E0C10209E0C10209E0C10209E0C1020DA
:1002BC009E0C10209E0C10209E0C10209E0C1020CA
:1002CC009E0C10209E0C10209E0C10209E0C1020BA
:1002DC009E0C10209E0C1020000000009E0C102084
:1002EC009E0C102000000000000000009E0C10204E
:1002FC0000000000000000009E0C10209E0C10203E
:10030C009E0C10209E0C10209E0C10209E0C102079
:10031C009E0C10209E0C10209E0C10209E0C102069
:10032C009E0C10209E0C10209E0C10209E0C102059
:10033C009E0C1020397101436EC619A039714153BE
:10034C006AC866CA62CC5ECE19A0397101535AD004
:10035C0056D252D44ED64AD826DA22DC06DE3301E7
:10036C006140828241114AC026C222C406C68282E2
:10037C00B24D4101024D924C224CB24B4101024B09
:10038C00924A224AB2494101024992442244B24063
:10039C00410182802A8311C62300B3007D16050318
:1003AC0065FE82802A8309CA8383050023007300BB
:1003BC007D16050385056DFA828015C22A83854654
:1003CC006367B500FD561307F6FF3A93BA9583831E
:1003DC000500230073007D163693B6956DFA828066
:1003EC0001A0B707EFBE37E700E0938707083CC7CB
:1003FC0001A031712ED332D536D72A8654119305EC
:10040C000008080806CF22CD26CB3AD93EDB42DDC8
:10041C0046DF36C64AC9EF30F07C376510200C0831
:10042C001305C585B7440040EF3010720008938463
:10043C0004400309040063180900FA406A44DA44D2
:10044C004A49296182800504930500082685EF102E
:10045C0000247DD99375F90F2685EF104022D1BF6A
:10046C00EFF2BFEE37651020130505865937376557
:10047C0010201305858837641020A53F130404ACA5
:10048C008144B76910202949104009C6A6851385F7
:10049C00098A853785043104E39824FF37651020D9
:1004AC001305C58AB937376510201305058E9137AA
:1004BC0037651020130545902D3FD1B539712AD6DB
:1004CC002ED437150040854506DE16DC1ADA1ED808
:1004DC0032D236D03ACE3ECC42CA46C872C676C468
:1004EC007AC27EC0EF10400B5DC9854537150040C0
:1004FC00EF10000C03D6E19583D6C1956376D60236
:10050C0083D6E1959106B3C60608239FD19403D6F2
:10051C00E19583D6C19563FCC60203D7C1953347D9
:10052C000708239FE19425A003D6E19583D6C195B6
:10053C0063FFC60003D6E1958D4663E5C608239F8D
:10054C00019403D6E19583D6C195E368D6FC03D715
:10055C00E1959315B02829C303A7419637061120BE
:10056C0003D5E195935787011307C636B3A7E72048
:10057C008395070093070010B385A502B3C5F50258
:10058C009317B028BE9503A7019683A74196B3C5D0
:10059C000508BA9723A2F1960145EF003003F250FB
:1005AC00E2525253C2533255A255125682567247DA
:1005BC00E2475248C248324EA24E124F824F21613E
:1005CC007300203083D6E195F116B3C60608239F3D
:1005DC00D19485BFEFF29FD679715921F1641D2D0D
:1005EC00EF10800B13850420EF104010116585452A
:1005FC0015053714014002CA02CC02CE02D002D239
:10060C0002D402D6EF00706B1D4613050480A94579
:10061C00EF00B00F930700408D491149130504807A
:10062C004C08FC82374A01404ECC4ACE93840420BD
:10063C00EF00A07F13050A8026D00C10B7040C0025
:10064C0026D402D223160102EF00507713050A803C
:10065C008545EF10800185451305100202CA02CCB6
:10066C0002CE02D002D202D402D6EF00106585452C
:10067C0037050200EF003066130504401D46954512
:10068C00EF00B0081D46130504409945EF00F00734
:10069C009307000213050440FC824C08E1474ECC42
:1006AC003ECEEF00807893070004130504404C08FD
:1006BC00FC824ACEEF00607737440040896793870D
:1006CC000758130504400C103ED026D402D2231632
:1006DC000102EF00B06E130504408545EF00F07881
:1006EC001305C012EF00707D83AA818303AAC18316
:1006FC0083A90184370411201304C43681441309DF
:10070C0000102685EF30702DD685EF30A03AD285BB
:10071C00EF30403AEF10600ACE85EF30A039EF3061
:10072C0010210AA085040904E39D24FD854511458B
:10073C0002CA02CC02CE02D002D202D402D6EF0000
:10074C00D057854537050020EF00F058371501408C
:10075C008D4741444C08130505803ECCE08202CE07
:10076C00EF00A06C0C10014502D002D202D6092D6C
:10077C00854501452D2D9315B0280145812D8545C5
:10078C00414502D002D223140102EF00D05483A7BA
:10079C00818037470F0013070724B3D7E7020C10EB
:1007AC003715004023110102FD172310F1029307A6
:1007BC00D0033ED2EF00F053054685453715004077
:1007CC00EF00705CB7E700E023A68710854537156E
:1007DC000040EF00D059693183AA418483A9418339
:1007EC0003AA0183374401409305000213050480DA
:1007FC00EF00F06921C113050480EF00D068137578
:10080C00F50F930505FD93F5F50FA54763E7B714B1
:10081C00B147B387F50237641020130404AC3E943F
:10082C00832B440063940B023765102013058591CC
:10083C00C9364DBF374400409305000213050440F0
:10084C00EF00F06445D11305044045BF10403765F7
:10085C00102013050593713E035C84008144B70C92
:10086C00112063E884013765102013050598513673
:10087C0095BF03D70C1EB3C7742103DB0700BE233F
:10088C000149B387E70213074006B3C7E702039495
:10089C00A1953E948567938787383344F40AA9471A
:1008AC003364F40A63080B04038581955A8939C1B2
:1008BC00EF30B012AA855685EF0010772AC65A85FC
:1008CC00EF30B01DB245EF30E01ECE852A89EF30F7
:1008DC00E014634C0504D2854A85EF30C00A6348A6
:1008EC00A00483A581844A85EF20B022EF30100A42
:1008FC00334905088504376510205A87A287CA86B4
:10090C006286A68513050595EF3010246313090242
:10091C00239E01942285EF00505A3D45239E01945D
:10092C00B3C40408EF0070592DBF4E895DBF5289C6
:10093C004DBF1166130606E881460145CA85EF20B6
:10094C00A06323A0A19683D7E19599E323A20196F6
:10095C0093070010239EF19475BF9307500563E431
:10096C00A7069307300463E4A7029307B002630160
:10097C00F50863EDA702A947E306F5E6B547E303DF
:10098C00F5E6AA85376510201305C59E55B5930766
:10099C00C5FB93F7F70F4547E365F7FE3767102064
:1009AC001307C79FB3C7E7209C4382879307D002E6
:1009BC00E319F5FC370711208357071ED14663F462
:1009CC00F604D9173DA89307C5F9E1B7513C19BDF9
:1009DC0083D5A195D10537651020939555601305E6
:1009EC000599239DB194A9B583D5A195B115E5B70A
:1009FC00370711208357071E9306F01863E5F6009E
:100A0C00A9072310F71E376510208355071E130501
:100A1C00859A39BD838781959306300263C5F600AC
:100A2C008507238CF19437651020838581951305F8
:100A3C00C59BFDBB83878195A556E3C6D7FEFD17E5
:100A4C00CDB7239D019413074006B70711202390BF
:100A5C00E71E37651020238C01941305459D01BDBD
:100A6C00EFF25F90B71702409843B7065C30411124
:100A7C001367170098C3D84337140240758FD8C337
:100A8C005C40B18BF5FF5C403707A76A7D179397E5
:100A9C0067495CC01C449397F7491CC41C40F98FF0
:100AAC001CC01C4037C7FF0F939727491CC01C4420
:100ABC00F98F1CC41C443707600C93E747001CC417
:100ACC00B707FF005CC41C58F98F1CD85C5837E77B
:100ADC00F0FF13070708F98F5CD85C58370708003C
:100AEC0013070702D98F5CD8292502C202C402C69B
:100AFC001C40B716024037060200939707293707A8
:100B0C0000011CC09C42F18F3EC4924785073EC237
:100B1C00A24781E79247E397E7FEB71702409C4351
:100B2C0037070200F98FEDC785473EC4224785473A
:100B3C00631DF70CB71702409847F1769386F60FB2
:100B4C00019B98C798471367070198C79847758FFB
:100B5C0098C798479306000298C798471377F7F100
:100B6C0098C798471367070298C798471377070EDB
:100B7C00E31DD7FE9843B70600021317872998C3C5
:100B8C00B71702409843758F75DF9847B7060090EA
:100B9C00FD161317F74998C79847758F98C7B7066E
:100BAC000070B71702409847758F75FFD843B7068A
:100BBC00FDFFFD161377F7F0D8C3D843D8C3D8433D
:100BCC00758FD8C3D843B726024013171729D8C33B
:100BDC0098423AC63247719B3AC6324713671700A0
:100BEC003AC6324798C29847B71602401317F729EE
:100BFC0098C7D843719BD8C3D84313672700D8C371
:100C0C002147DC42B18BE39EE7FE41016FF0CFF749
:100C1C0002C429BFB7170240D44398472146B18A72
:100C2C006394C602B7060070758F370600506303D5
:100C3C00C7146360E6021DC7B7479C1CB70600408B
:100C4C00938707806307D706B7877D01938707844F
:100C5C008DA0370600606300C710B76773079387D2
:100C6C000794CDB79047944798479305000A93F69D
:100C7C00060E21831377F7037D8A05076392B60866
:100C8C00B767CD1D9387075033D7E702B7071120FD
:100C9C0093870712B2979C239146B387E7026309A7
:100CAC00D600856693860654B3D6C600858A91C253
:100CBC00858323A6F1803716024054423707112052
:100CCC00130707119182BD8A36971823B706112096
:100CDC009386461EB3D7E7005842416641830D8B7D
:100CEC003697182333D7E70023A4E196B7F600E034
:100CFC0083A606D1F18E91E2BA8723A4F18082807B
:100D0C009305000E6392B602D45BB707112093874C
:100D1C000710C182B6979C23B7867D019386068403
:100D2C00B387D70285838DB7930700086397F600C6
:100D3C00B7479C1C9387078081BF9307000C639770
:100D4C00F600B7677307938707943DBFB7877D019C
:100D5C009387078415BFD85BB707112093870710BB
:100D6C004183BA979C2337877D0113070784B38788
:100D7C00E7023DBFB767CD1D938707501DBF01A08C
:100D8C00B7760040938606409C4205677917331767
:100D9C00A700D04133F7E7409C41D18F9045D18FCC
:100DAC00D045D18F3395A700598D88C28280B777F3
:100DBC0000409387074098433315A02881C5498F7D
:100DCC0098C382803375A74088C382804111B7775E
:100DDC00004002C6938707403EC6B247A107AA97B8
:100DEC003EC6B2478CC341018280011106CE22CC93
:100DFC000010B70700089C432326F4FE1520AA8791
:100E0C002326F4FE8327C4FE93F707F02326F4FE73
:100E1C008327C4FE99833E85F2406244056182803B
:100E2C00B7270240C84F098182809C4503D8050032
:100E3C0013F7070193F8F7001DCB584D93E81800F2
:100E4C0081468D4E414E3316D0283373C800631C37
:100E5C0066001393160033966E003377C740D0416B
:100E6C0033166600518F8506E39FC6FD58CD137768
:100E7C00F80F1DCF18418146130380023D4E930E8F
:100E8C008004A1453316D028337FC800631EE601C9
:100E9C006395670650C913962600331FCE00339610
:100EAC00C8003377E741518F8506E39DB6FC18C126
:100EBC001307F00F6372070554410146130E8002AD
:100ECC00930E80042143130786003317E028B37573
:100EDC00E800631FB7006396C70358C913172600B1
:100EEC00BD45B395E5003397E800B3F6B640D98E0F
:100EFC000506E31A66FC54C18280E39ED7F910C93B
:100F0C0059BFE39DD7FD18C9D1BF371701409D4785
:100F1C009306078063F8B702938785FF93F7F70F63
:100F2C00631AD506B70601408C468A073D4733172E
:100F3C00F70033F7E54098C69846B317F600D98FFB
:100F4C009CC682806308D502930707C0630AF50824
:100F5C00631CE51637070140544B8A05BD47B39710
:100F6C00B700B3F7F6405CCB5C4BB315B600DD8D28
:100F7C004CCB82803707014054438A05BD47B39759
:100F8C00B700B3F7F6405CC35C43B315B600DD8D18
:100F9C004CC38280930607C06304D5026312E5102C
:100FAC00B70601408C4E8A073D473317F70033F7DD
:100FBC00E54098CE984EB317F600D98F9CCE828020
:100FCC00B70601408C4A8A073D473317F70033F7C1
:100FDC00E54098CA984AB317F600D98F9CCA82800C
:100FEC003707014054478A05BD47B397B700B3F79D
:100FFC00F6405CC75C47B315B600DD8D4CC78280EC
:10100C003727014013070780AE876318E5043707BD
:10101C00014054538A05BD47B397B700B3F7F64068
:10102C005CD35C53B315B600DD8D4CD3828037276F
:10103C000140130707806312E502B70601408C5686
:10104C008A073D473317F70033F7E54098D6985693
:10105C00B317F600D98F9CD682803727014013072F
:10106C0007C06317E5088A073D473317F7003316A7
:10107C00F6009D471347F7FF63FBB700B707014026
:10108C00945B758F98DB985B518F98DB8280B707E8
:10109C000140D457758FD8D7D857518FD8D7828065
:1010AC0013070740E315E5F8B70601408C528A0791
:1010BC003D473317F70033F7E54098D29852B317F2
:1010CC00F600D98F9CD2828013070740E31AE5F211
:1010DC0037070140544F8A05BD47B397B700B3F7A4
:1010EC00F6405CCF5C4FB315B600DD8D4CCF8280E3
:1010FC008280EFF22FA7411185451305C00F02C264
:10110C0002C402C65D2EB7A70240984B137707F0B6
:10111C003AC002471367B7013AC0024798CBD84B85
:10112C00137707FC3AC002471367E7003AC002473F
:10113C00D8CB6539B7F7FF1F83A7477093F7070F15
:10114C008DE38545370500807926B7870040938766
:10115C000740D85381453705008013671700D8D353
:10116C009D2EB7F7FF1F83A74770370771411307F1
:10117C00D75093F7F7F06380E7086361F7023707FE
:10118C0050411307D750638DE70C370760411307A5
:10119C00D7506385E71241016FF00F9F37077241FB
:1011AC001307D750E399E7FE09649307F4FDB714CE
:1011BC0001407C824C0093078002138504803EC65C
:1011CC00AD31E1779387C70F4C00138504C07C8247
:1011DC00A939F977938707034C00371501407C82B6
:1011EC00A931930700304C001385044071147C82A4
:1011FC002D396082B9A0371401409307E01C7C8222
:10120C004C0093078002130504803EC63939E17700
:10121C009387470E4C00130504C07C823931F97753
:10122C00938707034C00371501407C82FD3E9307E2
:10123C0000304C00130504407C82C53E93074038B7
:10124C007C82372401404C0013050480F93E9167E1
:10125C00938707FC4C00130504C07C82F93625BF2C
:10126C003714014093070010130504807C824C0056
:10127C00930780023EC6553E93074002130504C0F7
:10128C004C007C825D36F977938707024C0037154A
:10129C0001407C82593EDD57130504404C007C8292
:1012AC00372401405936930770784C00130504809D
:1012BC007C82A53EE17793C777FC69BF3714014068
:1012CC0093070070130504807C824C009307800206
:1012DC003EC6A13E930740C0130504C04C007C825F
:1012EC00A936F9774C00371501407C823D3E9307B7
:1012FC00309F130504404C007C82053EE177372477
:10130C00014093C7F7DF4C00130504807C82313E0B
:10131C0095679387F7833DBFB7170240D44398472F
:10132C002146B18A6394C602B7060070758F3706E2
:10133C000050630EC7146360E6021DC7B7479C1CC0
:10134C00B7060040938707806307D706B7877D01F0
:10135C00938707848DA037060060630BC710B767AF
:10136C00730793870794CDB7904794479847930595
:10137C00000A93F6060E21831377F7037D8A05077F
:10138C00639DB608B767CD1D9387075033D7E70227
:10139C00B707112093870716B2979C239146B38702
:1013AC00E7026309D600856693860654B3D6C60059
:1013BC00858A91C285831CC1371602405442370777
:1013CC001120130707159182BD8A3697182393862F
:1013DC00C181B3D7E7005842416641830D8B3697E4
:1013EC001823B7F600E033D7E70058C183A606D11F
:1013FC00F18E91E2BA871CC5371602405C4263DD60
:10140C0007085C4237479C1C13070780AD83FD8B94
:10141C0095073357F70258C582809305000E6392E7
:10142C00B602D45BB707112093870714C182B69715
:10143C009C23B7867D0193860684B387D702858368
:10144C00B1B7930700086397F600B7479C1C9387C6
:10145C0007802DBF9307000C6397F600B7677307DF
:10146C009387079425B7B7877D019387078439BF86
:10147C00D85BB7071120938707144183BA979C2335
:10148C0037877D0113070784B387E70225B7B76752
:10149C00CD1D9387075005B7544293874181AD8288
:1014AC009D8AB6978C235C4293860181B9838D8B80
:1014BC00B6979C233357B700A9BF99C5371702407D
:1014CC005C4FC98F5CCF8280B7170240D84F337501
:1014DC00A740C8CF828099C5371702401C53C98FCB
:1014EC001CD38280B717024098533375A74088D31A
:1014FC008280B7370140138607C0D6219A21630D2D
:10150C00C502938707406309F502B70700406305DE
:10151C00F502938707406301F502B7170040138665
:10152C000780630BC500938707C06307F50056B5AA
:10153C001AB585475EA982801E21B221B3C7070860
:10154C0093F7F7F8D18FF22193F7F7CFD18F1EA134
:10155C0056B5B73701401AB5138707C06306E500C7
:10156C0093870740E317F5FC9C251EB9D9B71E21BC
:10157C0089C593E717001EA18280B3C70708F99BA2
:10158C00B3C70708CDBF5E2501C6CD8F5EA582808F
:10159C00B3F5B7404EA582801E294A25ED8F334501
:1015AC00050889C76D8D3335A00082800145828086
:1015BC0093C5F5FFB3C505080EA98280EFE29FDA4B
:1015CC009E257D77BD667D8F41112A84AE84631B79
:1015DC00D7005A2DB18B334707084D9BD98F5EAD81
:1015EC00239405001A28F577FD177D8FFE200A85B8
:1015FC00D98F1EA85A248D679387379F7D8FDE2045
:10160C00D98F9A24D98FBA24D98F5EA45E28DA2474
:10161C00B3C7070893F7F7CFD98F5EA8F539924770
:10162C0065459040B335F50281460A063305F5024F
:10163C00EF10901493064006B357D5021306F063CF
:10164C0013974700B377D502920793872703637AE2
:10165C00F60093070701B3C707081EA441016FE00A
:10166C00BFD2B3D7D702D98FFDB75E2589C5939763
:10167C00D7285EA5828079777D17F98FDDBF93F52A
:10168C00F51F4EA182804A211375F51F82800A2115
:10169C006D8D3335A000828083A7819637470F006C
:1016AC0013070724B3D7E7022398F1961307803E5C
:1016BC00B387E70223A6F1968280B7F700E0D84300
:1016CC00799BD8C303A7C19623A407003305E50271
:1016DC00114788CB98C398431367170098C3D84316
:1016EC00058B75DF9843799B98C38280EFE29FC787
:1016FC002A841165011185451505B714014002C2F4
:10170C0002C402C602C802CA02CC02CE7D331D46F8
:10171C0013850480A545EFF04FFF930700207C82D2
:10172C008D473EC44C00E147138504803EC6EFF064
:10173C00CFEF22C837440140B70708000C08130547
:10174C0004803ECC02CA231E01008D3D8545130545
:10175C000480213F05616FE03FC3EFE21FBF3749B3
:10176C000140AE89328481441309098063C5840029
:10177C0022856FE0DFC0930500044A85093F65DDD3
:10178C00B3879900838507004A858504B3C505088E
:10179C00FD35E9BFAA8703A501821387C1B8AA97B3
:1017AC0063EBE70037071820130707806365F70022
:1017BC0023A0F18282807D558280B717493F9387A1
:1017CC0087FD1317F54963E7E70001469305000011
:1017DC006F10E04A011106CEB707807F6368F700EF
:1017EC00AA85EF208059F240056182802C00EF0021
:1017FC00D00B937735000547B2452245638AE70045
:10180C000947638AE70091EF0546EF104047E1BFB7
:10181C00EF003051C9BF0546EF1060461315F5694E
:10182C00D9B7EF001050DDBF411122C426C24AC007
:10183C002E8406C62A896520AA84A2852285EF20DB
:10184C00500B51E1930500004A85EF20E00D1DE59A
:10185C00930500002285EF20200D2DCD2285EF1061
:10186C00405835C1930500002285EF20201B635C96
:10187C000504EF20102D9307200235A02685EF10CC
:10188C00405605E54A85EF10C05505C12285EF107D
:10189C00405501CDA6852685EF20B00579D9EF20DE
:1018AC00502A930710021CC139A893050000268505
:1018BC00EF20800709E94A85EF10A05209C522855F
:1018CC00EF1020525DF5B240224402492685924425
:1018DC004101828097F4000083A484A3EDB75D716D
:1018EC00A6C2CAC056DA86C6A2C44EDE52DC5AD88C
:1018FC005ED662D466D26AD06ECEAA84AE8A1399B2
:10190C00F549631C0902931765698607370780FF41
:10191C006377F778D6852685EF10B01FB64026443E
:10192C0096440649F259625AD25A425BB25B225C27
:10193C00925C025DF24D61618280B707807F2A8BD9
:10194C00131AF54963E4470163F92701B707803F90
:10195C00E312FBFC93976A694DBFAE89D28B63513E
:10196C0005063707804B6361E90209446315F906E4
:10197C00B707803F6305FA721305000063F447094B
:10198C00E3CE09F8568559BFB706803F6361D90885
:10199C001357794193076009998F3357F940B3175F
:1019AC00F7006396270B6310D90C2685E3D809F64C
:1019BC00A68517F500000325A595EF10104BB9BFB0
:1019CC00E308F9FAB707803FE301F9FEB7070040D7
:1019DC0001446385F508B707003F6393F904634C32
:1019EC000B082644B6400649F259625AD25A425B59
:1019FC00B25B225C925C025DF24D2685964461617D
:101A0C006F005021E3DC09F01395FA6901BFB707A9
:101A1C0000406385F504B707003F0144638DF5046E
:101A2C002685EF10A03BB707807F6308FA0063069A
:101A3C000A00B707803F631CFA0663D70904AA851E
:101A4C0017F500000325C58CEF10304235A8E30EC6
:101A5C00D9F4B70700400144E394F5FCA68526852C
:101A6C00EF20400565BDB7070040E389F5FE058B07
:101A7C000944198C75B72685EF104036B707807F5F
:101A8C006304FA00E3170AFAE35A0BE8B70780C0BD
:101A9C00D297C18F99E7AA852E85EF20002EAA85B3
:101AAC0029BF8547E31CF4E61315F56985BD13DBE7
:101ABC00F4017D1B33676401A68579DF3707004D80
:101ACC0063782717138737FF6365470363D80902C9
:101ADC0001452644B64096440649F259625AD25AF8
:101AEC00425BB25B225C925C025DF24D61616F10F5
:101AFC00402E9D0763F54703E34C30FD014526441A
:101B0C00B64096440649F259625AD25A425BB25BCD
:101B1C00225C925C025DF24D61616F10E02A97E5E8
:101B2C00000083A5E57EEF20402597E5000083A506
:101B3C00A57EAA84EF1010782A8997E5000083A56A
:101B4C00E57D2685EF101077AA8997E5000083A51F
:101B5C00257D2685EF101076AA8517E50000032554
:101B6C00657CEF208021A685EF10D074AA8517E53F
:101B7C0000000325A579EF2040202A8AA68526851A
:101B8C00EF105073AA855285EF10D07297E50000C4
:101B9C0083A58579EF101072AA854E85EF20E01D84
:101BAC00AA85AA844A85EF10C076FD777D8D2A8A96
:101BBC00CA85EF20801CAA857D142685EF20E01BAA
:101BCC00336464012A896300042E97E4000083A423
:101BDC0024747D7433745401A2855685EF20E0196A
:101BEC00D285EF10306DAA89D6854A85EF10906C9E
:101BFC00AA854E85EF10E071A285AA895285EF1057
:101C0C00706BAA852A844E85EF10A070AA8A2A8A46
:101C1C009317F5496355A02C37070043637AF728CF
:101C2C00930500002685EF10705F1325050055B550
:101C3C00B707807FE58F014789EB97E5000083A507
:101C4C00E56EEF103067AA8B215793D77B419387B2
:101C5C0017F8B7068000BA971387F6FF33F5EB0039
:101C6C0037C71C00B704803F13071747C98C014ABC
:101C7C00635CA70037B75D001307673D054A6355E2
:101C8C00A7008507958C014A1387C1943347EA2036
:101C9C00832D070026853EC6EE85EF20000E2A8D8B
:101CAC00A6856E85EF10E066AA8517E50000032572
:101CBC002566EF10901B2A8CAA856A85EF10905F21
:101CCC007D7937070400B37BA900AA8913D514408A
:101CDC00931C2A001315D529560A3A952A9AD285AF
:101CEC005E85EF10305DAA856A85EF2000092A8D8C
:101CFC00EE855285EF206008AA852685EF20E00747
:101D0C00DE85EF10305BAA856A85EF200007E2853F
:101D1C00EF10505A2A8CCE854E85EF10B05997E5AE
:101D2C00000083A5E560AA84EF10D05897E5000069
:101D3C0083A54560EF10E05DA685EF10B05797E5E1
:101D4C00000083A5655FEF10C05CA685EF10905670
:101D5C0097E5000083A5055DEF10A05BA685EF104D
:101D6C00705597E5000083A5655DEF10805AA68538
:101D7C00EF10505497E5000083A5855CEF10605977
:101D8C002A8AA6852685EF10F052AA855285EF1077
:101D9C007052AA84DE854E85EF10A057E285EF10B5
:101DAC007051A685EF10E0562A8DDE855E85EF100A
:101DBC00705097E5000083A5E558AA8DEF1060558B
:101DCC00EA85EF100055B374A900A6855E85EF1067
:101DDC00704E2A8A97E5000083A5C5562685EF101C
:101DEC00D079EE85EF107079AA856A85EF10F078BE
:101DFC00CE85EF10304CAA89A6856285EF10904BEA
:101E0C00AA854E85EF10E050AA89AA855285EF105D
:101E1C004050B374A90097E5000083A5E5522685D0
:101E2C00EF105049AA8BD2852685EF101075AA8524
:101E3C004E85EF10907497E5000083A52551EF10A7
:101E4C007047AA8997E5000083A585502685EF1079
:101E5C007046AA854E85EF10C04B1387C1936697C9
:101E6C000C43EF10004BB247AA843E85EF20E036BE
:101E7C0093874194E69703AC0700AA89A6855E85F3
:101E8C00EF102049E285EF10C048CE85EF10604876
:101E9C003375A900CE852A8AEF10306EE285EF10DB
:101EAC00D06DDE8539B397E4000083A4A44615B346
:101EBC00639EE70497E5000083A5C5494E85EF10A6
:101ECC0040452A89A2855685EF10306BAA854A8534
:101EDC00EF10702BE346A0D49307600835A83707A2
:101EEC001643637AF700930500002685EF10103334
:101EFC001325050029B1639BE700A285EF10F0675D
:101F0C00CE85EF105028E34905FCF1BF3707003FA1
:101F1C0001496376F704DD87B7068000938727F8BD
:101F2C00B3D7F640D69713D777411377F70F13072C
:101F3C0017F8B70580FFB3D5E540FD165D49FD8D5B
:101F4C003309E940F58F9397772933D927416354A7
:101F5C000A00330920412285EF1030622A84CE8595
:101F6C002285EF10003B7D7A337AAA0097E50000BA
:101F7C0083A5853E5285EF10F033AA8AA28552853F
:101F8C00EF10B05FAA854E85EF10305F97E500002B
:101F9C0083A5C53CEF1010322A8497E5000083A579
:101FAC00253C5285EF101031AA852285EF10603642
:101FBC00AA89AA855685EF10C035D6852A84EF10DC
:101FCC00D05BAA854E85EF10505B2A8AA2852285AC
:101FDC00EF10502E97E5000083A5C538AA89EF10A5
:101FEC00702D97E5000083A52538EF101059CE858C
:101FFC00EF10502C97E5000083A54537EF106031AA
:10200C00CE85EF10302B97E5000083A56536EF10D9
:10201C00D056CE85EF10102A97E5000083A58535A4
:10202C00EF10202FCE85EF10F028AA852285EF1017
:10203C00D054AA89AA852285EF10D02797E50000F5
:10204C0083A58533AA8A4E85EF103053AA85568511
:10205C00EF10A061AA89D2852285EF10B025D28518
:10206C00EF10202BAA854E85EF103051A285EF1072
:10207C00D050AA8517E5000003258529EF10F04FF5
:10208C0093177901AA9713D777416346E000CA8565
:10209C00EF009060AA87A6853E856FF07F9C17E5C0
:1020AC0000000325E5266FF07F873971B717493F8C
:1020BC0022DC4AD85AD006DE26DA4ED652D456D274
:1020CC005ECE62CC938787FD2A8B2E841319F5493B
:1020DC0063E8270108C093070000DCC1814485A098
:1020EC00B7D71640938737BEB70900802A8C63E1B7
:1020FC002711938409FFE98C97E5000083A5052837
:10210C006353A008EF107047B717C93F938707FDBB
:10211C002A896383F40497E5000083A56526EF10F4
:10212C00D045AA85AA844A85EF10304597E5000072
:10213C0083A50525EF10704448C004C08544F250B7
:10214C0062544259B259225A925A025BF24B624C77
:10215C002685D2542161828097E5000083A58522D3
:10216C00EF10B04197E5000083A505222A89EF10F6
:10217C00D040AA85AA844A85EF10304097E500002C
:10218C0083A5852045BFEF10C018B717C93F9387AB
:10219C0007FD2A896387F40297E5000083A5451E95
:1021AC00EF102017AA85AA844A85EF10103D97E5F9
:1021BC00000083A5E51CEF10C01548C004C0FD54F9
:1021CC00BDBF97E5000083A5E51BEF10801497E5D4
:1021DC00000083A5651B2A89EF10A013AA85AA8489
:1021EC004A85EF10903997E5000083A5E519E1B712
:1021FC00B7174943938707F863E72717EF00103E9B
:10220C0097E5000083A585182A8AEF10B00A97E598
:10221C00000083A5A50FEF10C00FEF105071AA841A
:10222C00EF10B07B97E5000083A54515AA8BEF1046
:10223C007008AA855285EF105034AA8A97E50000E1
:10224C0083A505145E85EF10F006FD472A8AAA8542
:10225C00568563C3970297470000938727AEB3C791
:10226C00F42083A7C7FF938909F0B3F9690163854B
:10227C00F900EF10903031A8EF1030309357750102
:10228C001359794193F7F70FB307F940214763448A
:10229C00F70008C085A097E5000083A5A50E5E8514
:1022AC00EF1050012A8AAA855685EF10102DAA85A9
:1022BC00AA895685EF10702CD285EF10102C2A8A23
:1022CC0097E5000083A5450C5E85EF10A07ED285B6
:1022DC00EF10B02AAA852A8A4E85EF10102A935740
:1022EC00750193F7F70F3309F940E54763CA2703E4
:1022FC0008C0CE8A032904005685CA85EF10F02742
:10230C00D285EF10902748C0E35B0CE21319F969F2
:10231C001315F5692320240148C0B304904005B57A
:10232C0097E5000083A5C5065E85EF10A0782A8985
:10233C00AA854E85EF107024AA85AA8A4E85EF10C7
:10234C00D023CA85EF1070232A8997E5000083A556
:10235C0065045E85EF100076CA85EF1010222A8A7C
:10236C00AA85568539B7B707807F6368F900AA85B7
:10237C00EF10B02048C008C095B3935979419389A8
:10238C00A9F7939779013309F9404A85EF10305A30
:10239C00EF10B064AA852AC24A85EF10101E97E58B
:1023AC00000083A565FFEF10E0702A89EF1030580C
:1023BC00EF10B062AA852AC4AA844A85EF10F01BDC
:1023CC0097E5000083A545FDEF10C06E9305000056
:1023DC002AC6EF1060558D4609E993050000268545
:1023EC00EF108054B336A000850697470000938702
:1023FC00E79C09474E86A28548008D24AA84E350A9
:10240C000CD41C409397F7691CC05C409397F769F8
:10241C005CC021B7011122CC06CE26CA4AC84EC6D2
:10242C0052C4B706807F2A849317F54963E3D70219
:10243C00AA85EF102068AA852285EF00906D2A846A
:10244C00F24022856244D2444249B249224A056193
:10245C008280FDD7AA8763590500AA85EF10F01179
:10246C00AA85EF108020E1BFE98E13577541DDC2BC
:10247C00130717F8A607A583937617009397772968
:10248C0091C286071354174086076546814401455F
:10249C00B7060001B305D5003E8763C7B700338587
:1024AC00D5003387B740B6947D16931717008582F5
:1024BC0075F231C313898182938941820325090006
:1024CC0083A50900032A0900EF10300BAA85528559
:1024DC00EF10C0546341A0020325090083A5090035
:1024EC0003290900EF00F062AA854A85EF1000531A
:1024FC006356050289048584B707003FBE945E04C9
:10250C0026943DBF8607850633F6B70065DEFD16BB
:10251C00158FB9BF8146B7058000FDB78504F998C2
:10252C00D9BF797126D24AD052CC06D622D44ECEFF
:10253C00B70700322A892E8A9314F54963F6F40002
:10254C00EF10F03E63070510CA854A85EF108056E0
:10255C0097E5000083A585DB2A84EF10A05597E54D
:10256C00000083A5E5E3AA892285EF10A05497E526
:10257C00000083A525E3EF00D059A285EF1080530E
:10258C0097E5000083A545E2EF10207FA285EF10B0
:10259C00605297E5000083A565E1EF009057A28596
:1025AC00EF10405197E5000083A585E0EF10E07C2B
:1025BC00A285EF10205097E5000083A5A5DFEF0062
:1025CC005055A285EF10004FA285EF10A04E2A8423
:1025DC00D2854A85EF10004EAA852285EF10E0794E
:1025EC00B7A7993E938797992A8463E59702AA85A2
:1025FC004E85EF108078AA8517E50000032545D19C
:10260C00EF10A077B250225492540259F249624A08
:10261C0045618280B707483F63E89702B70700FF20
:10262C00B385F40017E50000032585CE2EC6EF1008
:10263C00C074B245AA844E85EF102074A285EF10A9
:10264C00C073AA8526856DBF97E5000083A505D5C7
:10265C00D1BF17E500000325A5CB6DB761713ECA4C
:10266C00974700009387C7A9B347F7202324811A03
:10267C00232C41192328611923267119232481192C
:10268C0083AB070023229119232EB1172326111A8D
:10269C002322911A2320211B232E3119232A51196D
:1026AC002320A1192AC8F1572E8A328CB68C3A8B6A
:1026BC00938DF6FF01446347F6001304D6FFA14740
:1026CC003344F402130D140093173D00B30AB441C4
:1026DC003EC63309FC40338DBB0193090108D684F7
:1026EC00B3875441635FFD00E68A1812B3879A41A1
:1026FC0063CFFB041C0193040000814933CDFA2005
:10270C0081A01305000063C80400D247B3C7F420AE
:10271C008843EF10902C23A0A90085049109C9B718
:10272C00C24783250D003ACCB3C6F92088428509EF
:10273C00EF104038AA852685EF00B03D6247AA8489
:10274C00711DE3DF3DFD04C3850A110745B71C1855
:10275C00B3C7FB203ED2931724003ED0A147B387CA
:10276C0027415E843ECE931724003ECC9C1AB3477F
:10277C00F42083A907FB130D0103EA84A28A634E9C
:10278C005013CA854E85EF00207197E700009387A0
:10279C00A7C28C43AA84EF10E031992D97E7000073
:1027AC009387C7C18C43EF10E030AA852685EF10C4
:1027BC00C05CAA84EF10B017AA8AEF101022AA8569
:1027CC002685EF10805BAA89635F2013981A930704
:1027DC00F4FFB3C7E720724783A407ECB3D6E440F9
:1027EC00B69AB396E600958C23A097EC9D47B387D9
:1027FC002741B3D4F440635D9004850A81460146B9
:10280C009305F00F1305001063C486126358200162
:10281C0085476308F91489476301F9168947639959
:10282C00F40297E700009387A7AE8843CE8532D495
:10283C00EF10A0542256AA8901CECA8517E50000D4
:10284C00032505AD912DAA854E85EF100053AA895D
:10285C00930500004E85EF10200D6311051C9307A6
:10286C00F4FF0147BE8663D47713630F07163684D3
:10287C001C18B347F4209C436119638F0718CA8551
:10288C0017E500000325C5A8012D2A89A28917EC9C
:10289C000000032CECA663D609202289634109268B
:1028AC001C12974D0000938DED8293090000814C12
:1028BC00330C2441334DF92005AC97E70000938786
:1028CC0027A48C434E85FD1AEF10C01EEF10300666
:1028DC00EF10B01097E70000938707AC8C432AD415
:1028EC00EF10401DAA854E85EF102049EF103004E3
:1028FC001C1288C0B3C6FA2022558C429104EF00FA
:10290C005021AA89ADBD631909009C1AB347F42064
:10291C0083A4C7EB9D84C5B597E700009387079FF9
:10292C008C438144EF102006E34405F28944F1B551
:10293C0083270D0001EE85C3B307F5402320FD006E
:10294C008506110D63DD860083270D00B387F540E6
:10295C002320FD0085478506110D3E8675B505467D
:10296C0075B5981A9307F4FFB3C7E72003A707ECD4
:10297C001377F70723A0E7EC55B5981A9307F4FFE4
:10298C00B3C7E72003A707EC1377F703E5B71018D5
:10299C0033C6C7201042FD17518FF1B5850771174B
:1029AC001443EDDEB3099401930A140018013E940C
:1029BC00B3C9E920E34954DB5247825793942A0068
:1029CC00B3C7FA20BA978843EF10300123A0A900AF
:1029DC00CE8601479307000063DBED001812BA9412
:1029EC009CC0850A9109F9B7125785474DBF3ED651
:1029FC00C2478C423AD43346F720084236CCEF100B
:102A0C00600BB257AA853E85EF00B0102257E24604
:102A1C00AA870507F116C9B77D1499BDB2474E8533
:102A2C00B3858741952997EC000083ACEC96E6853D
:102A3C00AA89EF005075634A050497E5000083A549
:102A4C00258C4E85EF100007EF10606EEF10E078CC
:102A5C00E2471818E68593870714338DE7002A8C14
:102A6C00EF104005AA854E85EF102031EF10206C39
:102A7C002320ADEC9C1A05046285B349F420EF10B9
:102A8C00006B210923A0A9ECDDBBE24718184E8589
:102A9C0093870714338CE700EF1060692320ACECAC
:102AAC00F9BB1C12B3CCF9201C18B3C7F92088430E
:102ABC00FD19EF108072CA85EF00D07F23A0AC0007
:102ACC00E2854A85EF00107F2A89F1B383250D003A
:102ADC0003A50D00850C910DEF00D07DAA854E85C8
:102AEC00EF003003AA89110D63C49B01E3509CFFD6
:102AFC009C1A334CFC207D1923203CF745B38947A5
:102B0C0063C667056342600F1305000063070B087B
:102B1C008320C11A0324811A8324411A0329011A20
:102B2C008329C119032A8119032B0119832BC1187D
:102B3C00032C8118832C4118032D0118832DC117E8
:102B4C0013F57A00832A41195D6182808D47E31168
:102B5C00FBFC9C093349F420A28BCA89F119634F01
:102B6C007009228B854C711963C06C0D1305000024
:102B7C0005496341890E4E47DE476395040E2320B9
:102B8C00EA002322FA002324AA0059B79C09B34770
:102B9C00F4208C437D14EF00C077E35904FE99C0F8
:102BAC001315F5692320AA00A5B79C09B347F92092
:102BBC008C437D19EF00E075E35909FEAA8799C093
:102BCC009317F569AA854E452320FA001309010DC8
:102BDC00EF10A01A85491109635C340199C01315D3
:102BEC00F5692322AA002DB7228913050000E9B745
:102BFC00832509008509EF00C071F1BF83AC090082
:102C0C0003AC4900FD1B6685E285EF008070AA8548
:102C1C002A8B6685EF106016E285EF00806F23A289
:102C2C00A90023A069011DBF032C0900832B4900B7
:102C3C007D1B6285DE85EF00C06DAA85AA89628541
:102C4C00EF10A013DE85EF00C06C2322A900232017
:102C5C00390111BF9C09B347F4208C437D14EF005C
:102C6C00406B01BF1317F7699397F7691315F56953
:102C7C002320EA002322FA002324AA0051BD0111CB
:102C8C0022CC4EC656C206CE26CA4AC852C4B70774
:102C9C0000322A84AE89B28A1317F5496375F7009E
:102CAC00EF10E04849C5A2852285EF00B060AA84E8
:102CBC00AA852285EF00106097D5000083A545708A
:102CCC002A892685EF00105F97D5000083A5856FB4
:102CDC00EF10A00AA685EF00F05D97D5000083A544
:102CEC00A56E052DA685EF00F05C97D5000083A599
:102CFC00E56DEF108008A685EF00D05B97D500003E
:102D0C0083A5056D39252A8A639D0A02AA85268525
:102D1C00EF00505A97D5000083A5C565EF10E0056C
:102D2C00CA85EF003059AA852285E5232A84F24012
:102D3C0022856244D2444249B249224A924A0561F0
:102D4C00828097D5000083A5655C4E85EF00905678
:102D5C00AA8AD2854A85EF00F055AA855685EF10D0
:102D6C00C001A685EF001055CE85EF100001AA8496
:102D7C0097D5000083A505604A85EF00B053AA855E
:102D8C002685412BAA852285EF00307F45B741115E
:102D9C0022C426C206C62A84AE84EF10805A04C10F
:102DAC00B24022852244924441018280411106C6E0
:102DBC0011C91395F569EF00F04FB240930520024D
:102DCC004101F1B72E85C5BF97D5000083A585605D
:102DDC00F1BF97D5000083A52560C9BF1315F54930
:102DEC008280B707807F1315F5493325F500828063
:102DFC00011126CA4AC81319F5499354790106CE14
:102E0C0022CC4EC6938414F8D947AA8563C697067C
:102E1C002A8463D7040297D5000083A5255CD529A5
:102E2C0093050000EF003036635AA000635404068B
:102E3C00370480BF6314090037040080A28599A071
:102E4C00B70980001389F9FF33599940B377A9006A
:102E5C0095CB97D5000083A565586529930500008F
:102E6C00EF007032E35CA0FC63550400B3D99940C9
:102E7C004E9433742441D9B7B707807F6364F9004B
:102E8C004929AA85F2406244D2444249B2492E856E
:102E9C000561828001445DB7AA871317F54961CF9C
:102EAC00411106C622C43706807F6366C700AA8517
:102EBC008D21AA87ADA8B376C5002E84A1EA97D53B
:102ECC00000083A5E551EF00F03E5177130707CBC7
:102EDC00AA876340E408135775411377F70F1D1742
:102EEC00B1669386063563D5860217D50000032597
:102EFC00E54E63D6070017D500000325E54E97D5A0
:102F0C00000083A5A54DEF00F03A65B75D83C9BFFE
:102F1C00B30587001307E00FE349B7FC635EB0000D
:102F2C00B7078080FD17DE057D8DB3E7A500B240A5
:102F3C0022443E8541018280295763D1E50217D591
:102F4C0000000325254A63D6070017D5000003258A
:102F5C00E54997D5000083A5E54875B7370780800C
:102F6C00E5057D1793977501798D97D5000083A59D
:102F7C0025485D8D49BF82803288AA882E87CDEA8C
:102F8C0063FFC50EC167636AF618B7070001B33754
:102F9C00F600B307F040E19BE1073353F600973698
:102FAC000000938626219A96942213030002B6976A
:102FBC00B306F340630BF3003397D500B357F5001A
:102FCC003318D6005D8FB318D5001356080133554E
:102FDC00C702B346080893D708013377C702B385F5
:102FEC00A6024207D98F63FAB700C2971307F5FF01
:102FFC0063E4070163E8B7303A858D8F33D7C70296
:10300C00B3C80808B3F7C702B386E602C207B3E831
:10301C00F80063FBD800C2989307F7FF63E508013B
:10302C00791763E3D8003E874205598D814582802C
:10303C0063F5D500814501458280C16763E5F618CB
:10304C00B7070001B3B7F600B307F040E19BE10707
:10305C0033D8F600173700001307C715429718230B
:10306C00930800023E973388E8406392E81863EDBA
:10307C00B6263335C500134515008145828045C6FB
:10308C00C167637BF62413370610134717000E072E
:10309C00B356E600973700009387C711B6979C2369
:1030AC0093060002BA97B38EF640639DF608B38779
:1030BC00C5408545935606013346060833D5D702DD
:1030CC0013D70801B3F7D7023303C502C207D98F50
:1030DC0063FA6700C2971307F5FF63E4070163E027
:1030EC0067223A85B387674033D7D702B3C808083D
:1030FC00B3F7D7023306C702C207B3E8F80063FB85
:10310C00C800C2989307F7FF63E50801791763E3DA
:10311C00C8003E874205598D82809337061093C7AD
:10312C0017008E079DBD814697370000938787084F
:10313C00B6979C23014793060002BA97B38EF640CC
:10314C00E387F6F63318D60133D3F500935608010E
:10315C00335ED302B395D501B357F500CD8F33460B
:10316C00080813D70701B318D5013373D302B3057D
:10317C00C603420333676700637BB70042971305AE
:10318C00FEFF636A07176378B716791E42970D8F97
:10319C003355D702B3C707083377D7023303A602D8
:1031AC004207D98F63FB6700C2971307F5FF63E0F3
:1031BC00071563FE67127915C29793150E01B38735
:1031CC006740C98DE5BD93B7061093C717008E07EE
:1031DC0033D8F600173700001307C7FD42971823A2
:1031EC00930800023E973388E840E382E8E8335EB8
:1031FC00E600B3960601336EDE00B3D8E500935EAD
:10320C000E01B3D7D803B39505013357E5004D8FA5
:10321C0033430E089356070133160601B3F8D8034F
:10322C00B305F302C208B3E6160163FBB600F296CF
:10323C009388F7FF63E3C60D63F1B60CF917F296AA
:10324C008D8EB3D5D60333470708B3F6D603B30830
:10325C00B302C206558F637B170172979386F5FFF5
:10326C006369C70963771709F9157297C207C16EAD
:10327C00CD8F9386FEFFB3F5D70013D30701F18EE4
:10328C004182338ED50233071741B306D3029358CC
:10329C000E01B385C502B695C6953303C30263F31D
:1032AC00D500769393D605019A966363D70263058E
:1032BC00D7003E8581458280C166FD1633F7D50067
:1032CC004207337EDE00331505017297E373E5FE8A
:1032DC001385F7FF81458280B70700016377F602FB
:1032EC009356060141477DB38145054582803A8559
:1032FC00E9B5B685A5BF2A8E59BDC68791B7791594
:10330C00C297CDB37915C297CDB993568601614753
:10331C0051B3370780007D179356750113D675018D
:10332C00B377A70013F3F60F6D8F1358F5011376CF
:10333C00F60FFD81C2888E070E07B306C3406301EA
:10334C00B804635FD00021EE630A07101386F6FF02
:10335C00630C062A9305F00F638DB616B286B1A0E6
:10336C00D5CAB3066640631C031CFDC71385F6FF64
:10337C006307052C1308F00F638B0615AA86F1A2C0
:10338C00635BD0145DCE1306F00F6304C3141317E4
:10339C00A7296D46635AD61E85079A8681A0130607
:1033AC00F00F6308C3121317A729ED45054663CD2B
:1033BC00D50013060002158E3316C700B356D7007E
:1033CC003337C00033E6E600918F37070004B3F6BD
:1033DC00E700DDEE13F777009A8649C313F7F70081
:1033EC0011466303C7009107370700047D8F3DC763
:1033FC00138516001307F00FC2886302E5081397B4
:10340C0067001375F50F25835E05598D9397F801A9
:10341C005D8D8280130613001376E60F631B061472
:10342C006314030A63890720630207103385E7409E
:10343C0037060004698E63060622B307F7402E8810
:10344C0041A009CF1386F6FF6308061A9305F00F07
:10345C006381B608B28635BF2E88BA871307F00F82
:10346C008D836397E60CDDC31305F00F8148370796
:10347C0040005E05598D9397F8015D8D8280130590
:10348C00F00F01475E05598D9397F8015D8D828091
:10349C007D1733F6E70093170660ED173316F60029
:1034AC0063C16706B3866740850693070002958F54
:1034BC00B317F600B337F0003356D600D18F8146E0
:1034CC0013F7770001FF0DB76395071451DF2E88B2
:1034DC00BA878D8349BFA1C2B30666406316030E3B
:1034EC00ADDF9385F6FF638905101305F00FE381BB
:1034FC00A6FEAE86ED4563D2D51293071700B286B1
:10350C00F1BDB306F3409317A6495DBFC2881305FE
:10351C00F00F0147D5BD9306130013F6E60F45EEE9
:10352C006317030E63820712631207128D838146A1
:10353C00A60713D7970013F5F60FC288F1B513053C
:10354C00F00FE306A6F89397A7296D480545634D40
:10355C00D80013050002158D3395A700B3D6D700FC
:10356C00B337A00033E5F600B307A74032832E88AB
:10357C00A9BD3386E740B7060004F18EB5EA01FE1B
:10358C0081480145014749B513060002158E3316D3
:10359C00C7003357D700B336C000558FBA973707DB
:1035AC0000047D8FE30807E2930613001305F00F68
:1035BC000147E38BA6E43706007E13D717007D1670
:1035CC00858B718FD98FEDBD9305F00FE302B6F0AB
:1035DC009397A72905B71306F00FE382C6EA3E9727
:1035EC009357170013F67700E31A06DE8D8389B71D
:1035FC003306F7402E8845B5BA97370700047D8F00
:10360C00894605434DFBF9B3998F05437DBBE38197
:10361C0007ECE31B07E48D83B9B593050002958D88
:10362C00B395B700B3D6D700B337B000DD8EB387F0
:10363C00E6003283ADB729D72E88BA87C5BDB3074C
:10364C00F7402E88054351B3BA87CDB5BA973706E4
:10365C0000047D8E814659DA9397A74985468D8360
:10366C00C1BDAA8711DD8D83E1B593577501931800
:10367C00950093F7F70F93D898007D81F1CB130742
:10368C00F00F638DE70C8E08138617F80147014E77
:10369C009398A82993D775019396950093F7F70FF4
:1036AC00A582FD81C9C71308F00F6380070D8E0634
:1036BC00938717F8814E9396A6293D433348B5005E
:1036CC001D8E6366E31A17330000130323A43347DC
:1036DC0067201C439A9782879307F00F0147139535
:1036EC007701598D7E083365050182808D4763040F
:1036FC00FE028547631BFE0E2A88814701471395FE
:10370C007701598D7E083365050182808D472E85A2
:10371C00B688639CFE0C9307F00F37074000139597
:10372C0077010148598D7E08336505018280C1EA15
:10373C0013671700B5473348B500E3EFE7F8973642
:10374C0000009386A6A03347D7201C43B6978287E8
:10375C00639A080411470146054E2DBF639F08026A
:10376C0021471306F00F094E35B795E21367270072
:10377C007517AD463348B500E3E1E6F8973600001F
:10378C00938646A03347D720184336970287136792
:10379C0037009307F00F8D4E0DB731471306F00F1E
:1037AC000D4ECDBD139708609307B7FFB398F80083
:1037BC009307A0F83386E740014E0147E1BD13980B
:1037CC0006609307B8FFB396F6009307A0F8B3878B
:1037DC000741814EDDB5130616F08947E318FEF05C
:1037EC002A889307F00F0147DDBD2A889307F60757
:1037FC00635EF00213F7780019C713F7F8009146CF
:10380C006303D70091083707000833F7E80009C7AE
:10381C00930706089398B8491307E00FE34EF7EAAD
:10382C0013976800258393F7F70F55BD854699C705
:10383C009D8EED4581470147E3C3D5EA1307E609A1
:10384C003397E8003337E000B3D7D800D98F13F79C
:10385C00770019C713F7F70091466303D700910758
:10386C00370700047D8F55CB854701478DBD4167D8
:10387C00139356007D17935503013377E30063F8D8
:10388C00D806B3D6B802C6877D1681483385E602C2
:10389C00B3F7B702C207B3E7170163F8A7009A970B
:1038AC009388F6FF63F66706C686898F33D5B70211
:1038BC00B3F7B7023307E502C20763F2E702B38539
:1038CC006700B3B8F500130EF5FFAE8763980800D8
:1038DC0063F6E5007915B387650011A07285C20601
:1038EC00998FC98EB337F000B3E8F60001B793D7C0
:1038FC001800B3D6B702FE0893D808013385E60248
:10390C0041BF2E852A88D5BB014837074000C1BB73
:10391C00E3FCA7F8F9169A9749BF9A0713D79700B3
:10392C00814775BB2E856DBD935675013707800099
:10393C007D1713D6750193F6F60F1308F00FB378B5
:10394C00A7009357F5016D8F1376F60FFD81054592
:10395C0063820603630706016394C6006384E80070
:10396C00828082800145E38DB7FE0545F5FA33353B
:10397C0010018280E316D6FEB3E8E800E39208FE5D
:10398C0033C5B700828013567501370780007D1749
:10399C0093D675011376F60F1308F00FB378A700C2
:1039AC009357F5016D8F13F5F60FFD816305060333
:1039BC00630A050105EA09E939C3639E0804A1C934
:1039CC002E85828039E719E2E38B08FE6399B700F4
:1039DC009DCF3E858280639E08026305C502054526
:1039EC009DE782806DDDE39CB7FEE34AC5FEE341B3
:1039FC00A6FEE36617FF0145E3ECE8FC8280E3904A
:103A0C0008FE828019E7E39CB7FC014582807D5556
:103A1C00828079558280E38EB7FCD1B7135675013D
:103A2C00370780007D1793D675011376F60F1308B0
:103A3C00F00FB378A7009357F5016D8F13F5F60FC0
:103A4C00FD8163060603630A050105EE11E929CB26
:103A5C00639F0804B9C92E858280094501EB19E2E0
:103A6C00E38A08FE638BB7020545A1E38280639C61
:103A7C000802E31BC5FE094575FBE397B7FE01453C
:103A8C0082807DD1E392B7FEE340C5FE6347A6007A
:103A9C00E36C17FD0145E3FBE8FC81CB3E8582809E
:103AAC00E39408FC8280094582807D558280E38105
:103ABC00B7FE5DBF935775011317950093F7F70F7A
:103ACC00935897007D81638507101307F00F638768
:103ADC00E7108E08938617F80147814E9398A82912
:103AEC0093D775011398950093F7F70F1358980017
:103AFC00FD81F9C31306F00F6388C704938717F889
:103B0C00338ED7000E08A947014693061E001318E2
:103B1C00A82963C3E7103343B50009451A8F6344E2
:103B2C00E5047D17854563EEE5126300A60C854719
:103B3C007A83631BF6048147014613957701518DF7
:103B4C009317F3015D8D8280138EF60F630A080ABA
:103B5C003343B5001367370029461A8F9386061036
:103B6C006344E6200D463317E0281375075319CD2F
:103B7C008947638CFE068D476384FE0276868547F3
:103B8C0046887A83E309F6FA368EA9A2937707243E
:103B9C0081EB1377870871C72E8FC288B28EC9BF8D
:103BAC009307F00F01433706400013957701518DB1
:103BBC009317F3015D8D828063140808368E1367AA
:103BCC001700A947054693061E00E3D6E7F4A9A003
:103BDC00639B080411478146854E19B7639008040E
:103BEC0021479306F00F894EE5BD9307F00F7A83BA
:103BFC00014613957701518D9317F3015D8D8280EA
:103C0C0013672700A9479386061039430946E3D466
:103C1C00E7F0AD47E302F3F82A8F99BF31479306DB
:103C2C00F00F8D4E75BD139708609307B7FFB398CF
:103C3C00F8009307A0F8B386E740814E01474DB5D5
:103C4C00931708601386B7FFB387F640138EA7F857
:103C5C00A9473318C80093061E000146E3DDE7EAC6
:103C6C0065BFC16E9387FEFF93D5080113550801FC
:103C7C00B3F8F800B377F80033861703B387F5026F
:103C8C0013570601B3081503BE984697B385A502D2
:103C9C006373F700F69541657D15B377A700698EC0
:103CAC00C207B2971396670013580701E98333379D
:103CBC00C0002E98D98F1A083368F800B70700088F
:103CCC00B377F80081CB935718001378180033E8BA
:103CDC000701368E9307FE07635EF00213777800B8
:103CEC0019C71377F80091466303D70011083707FB
:103CFC0000083377E80009C793070E081318B84972
:103D0C001307E00F6349F70413166800258293F735
:103D1C00F70F25B5054799C71D8FED46814701461D
:103D2C00E3CDE6E0130EEE09331EC801B357E800ED
:103D3C003337C001D98F13F7770019C713F7F70082
:103D4C0091466303D7009107370700047D8F01CBA1
:103D5C0085470146DDB39307F00F0146F9BB9A077F
:103D6C0013D697008147D1BB3D4E01433706400027
:103D7C00E305C7DD2D430D4669BDB7078000FD1770
:103D8C0013D6750133F7A700935675019358F501B7
:103D9C00ED8F1376F60F1308F00F13F5F60F46831D
:103DAC000E07FD81939637006302060593C5150037
:103DBC00B307C540638FB8006358F03035E6638CA9
:103DCC0006141386F7FF6302062A638E0703B28775
:103DDC0085A06356F0306DCA630705039396A62938
:103DEC006D466350F6140507AA87ADA8930715F026
:103DFC00CDE693C515006382B80E638E0718630772
:103E0C000510AE8836870D8313F318001305F00FD9
:103E1C003DCF1305F00F0143370740005E05598D68
:103E2C009317F3015D8D8280E30F05FD9396A62910
:103E3C00ED45054663CDF500130600021D8E339645
:103E4C00C600B3D6F600B337C00033E6F600118FC8
:103E5C00B7070004B376F7006393061093767700E8
:103E6C00AA87D5CA9376F70011466383C60011075B
:103E7C00B7060004F98EC5C285079306F00F13F33D
:103E8C0018006385D70C1A0713F5F70F25835E0509
:103E9C00598D9317F3015D8D8280E390B8F6B1C311
:103EAC006313051C9307F00F35C79385F7FF6388E1
:103EBC0005121305F00F6388A71AED4763DDB71AD7
:103ECC0013871600B28779BFB9C61386F7FF63084C
:103EDC000610E38A07F3B28721B781C761D5014782
:103EEC001DB79307150013F6E70F63180614631B31
:103EFC0005166309071A6399061A0D83814726076D
:103F0C00258313F5F70F13F3180051B79307F00F30
:103F1C0065EBAE8836879306F00F0D83E386D7EEFC
:103F2C00F9BF130600021D8E3396C6003336C0004F
:103F3C00B3D6F600D18E3697B7070004F98F99DF08
:103F4C00930715009306F00F6393D70A1305F00F30
:103F5C0001475E05598D9317F3015D8D8280FD1726
:103F6C003376F70093170660ED173316F60063C827
:103F7C00A704898F8507130700021D8F3317E600EE
:103F8C003337E0003356F600518F81479376770034
:103F9C00E39A06ECF1BD9307150093F7E70F8DE755
:103FAC0055E96DCFB9DAB307D740370600047D8EDB
:103FBC00630706103387E6408147AE88C1BFB3075D
:103FCC00F5401317A649D9B73306D740B7070004F5
:103FDC00F18FC9E741FA0143014501474DBD3697C1
:103FEC00B7060004F98E89470545E38906E63706CE
:103FFC00007E935617007D16058BF18E558F79B781
:10400C001388F7FF630708081305F00FAE88638C5D
:10401C00A704ED45854763CE050193070002B387DE
:10402C000741B317F70033580701B337F000B367F4
:10403C00F8003387F640328521BD1306F00FE38775
:10404C00C7F0BA9613D7160013767700E31C06E078
:10405C000D8375B511EFE38E06DA65B33386E64052
:10406C00AE8809B711E7368779BB158F0545CDB3F7
:10407C00E38B06D879BB930700028D8FB317F7003B
:10408C00B355B700B337F000DD8D3387D5003285DB
:10409C0065B53387E640AE8805455DBB8DDEAE88E1
:1040AC003687A1BD368791BD369737060004798EC9
:1040BC00814759DE1317A74985470D8389B581DFE1
:1040CC003E870D83814725BDE38707EC3308A64067
:1040DC00C287E30F05E2AE881317A7291DBFE38241
:1040EC0007E0B305A64019E1AE877DBB1317A729DE
:1040FC00E9B393567501370780007D1713D6750108
:10410C0093F6F60F1308F00FB377A7001376F60F9C
:10411C006D8F638B06019307F00F01456303F60067
:10412C0082803335E00082800545F5D782801357B5
:10413C007501931795001377F70F1306E00793D6C5
:10414C0097009357F501635BE6001306D00963599A
:10415C00E600370500807D153E9582800145828002
:10416C001306500993967629634DE60013066009F1
:10417C003307E640B3D6E6003305D040EDF3368581
:10418C0082801307A7F6B396E600FDB713577501A7
:10419C00931795001377F70F1306E00793D6970044
:1041AC009357F50101456353E60091C38280930751
:1041BC00E0097D55E3CCE7FE130650099397762969
:1041CC006357E6001307A7F63395E70082801305C3
:1041DC006009198D33D5A70082801DCDB306A04090
:1041EC009307E009B366D50A130660099395066038
:1041FC008D8F1357F5016349F6022146638AC50872
:10420C00E115B396B60013F5F70FA606A5825E0569
:10421C00558D7E07598D82800147014581465E058B
:10422C00558D7E07598D8280130690096346F604DE
:10423C0015461385B5FF6384C500B396A60013F528
:10424C0076001396A64919CDBD8A1145638CA6003C
:10425C001106B7060004F18E91C69307F0098D8FF5
:10426C001316A6499316660013F5F70FA5825E0583
:10427C00558D7E07598D82801386B5011545339671
:10428C00C6000D8DB3D6A6003336C000D18E45BF07
:10429C00A606A5821305600959B71DC59307E00949
:1042AC009316056013076009958F6344F702214745
:1042BC006383E608E1163317D500260713F5F70FCD
:1042CC0025835E05598D8280014501475E05598D18
:1042DC008280130790096344F70415471386B6FFD1
:1042EC006384E6003315C500137675001317A549D2
:1042FC0005C23D891146630DC50011073706000440
:10430C00798E19C61305F009B307D5401317A749C1
:10431C0013F5F70F1A0725835E05598D82801387D5
:10432C00B60115463317E500158E3337E0003355CB
:10433C00C500598D55BF2605135795001305600907
:10434C0071B703A5C18282805D7122D406D62A84FE
:10435C002EDA32DC36DEBAC0BEC2C2C4C6C603A573
:10436C00C18211C51C4D81E72AC6752932450C4501
:10437C005418228636CEEF10E005B25022546161FB
:10438C0082801971A2DCA6DA86DECAD8AA843284AD
:10439C00635C06009307B0081CC17D55F65066544B
:1043AC00D65446590961828093078020FC822EC422
:1043BC002ECC36868147BA8619C09307F4FF7D59F7
:1043CC002C0026853EC83ECE231B2101EF00301C5D
:1043DC00635525019307B0089CC069D0A247238080
:1043EC0007006DBF3687B2862E86AA8503A5C182CB
:1043FC006FF03FF9011122CC26CA4AC806CE4EC630
:10440C00AA842E89328401C51C4D91E32929972752
:10441C000000938727EE6317F402C0401C4C1CC4A9
:10442C005E24A18B99C31C4895EFA2852685492053
:10443C0015C97D59F2406244D244B2494A85424979
:10444C0005618280972700009387C7E86314F40006
:10445C008044E9B7972700009387C7E5E310F4FC85
:10446C00C0446DBF1C4808409379F90F1379F90FBC
:10447C001D8D5C486346F500A2852685912C55F967
:10448C001C440505FD171CC41C401387170018C0DD
:10449C00238037015C486388A7005E24858BD9DBB9
:1044AC00A947E319F9F8A28526851D2441D551B7F2
:1044BC00411122C426C24AC006C683A4C1822A89DD
:1044CC002E8489C49C4C99E32685B12E9727000035
:1044DC00938747E26313F402C0408317C40013F7B9
:1044EC00870025E713F707010DEB25472320E9008B
:1044FC0093E707045EA47D5571A09727000093876E
:10450C0067DD6314F4008044C9BF972700009387CC
:10451C0067DAE314F4FCC044C9B7918B9DC34C58C3
:10452C0089C9930744046384F5004A85AD2B232A7B
:10453C0004025E242322040093F7B7FD5EA41C48FA
:10454C001CC05E2493E787005EA41C4899EB5E2494
:10455C001307002093F707286385E700A2854A8597
:10456C0045298317C40013F717001DC3584823248B
:10457C0004003307E04018CC1848014501E713F755
:10458C0007083DF7B240224492440249410182801F
:10459C0013F72700814611E3544814C4F1BF8397E5
:1045AC00C500011122CC26CA06CE4AC84EC613F746
:1045BC008700AA842E8479E3D8416345E000B84192
:1045CC006356E008585459C303A9040023A00400FF
:1045DC000C5093D7C748A9CB70485E24918B99C7D0
:1045EC005C401D8E5C5899C33C401D8E5C540C5035
:1045FC00814626858297FD57630CF5041C48056798
:10460C00232204001CC05E24F98F91C368C84C5847
:10461C0023A0240185CD930744046384F5002685EB
:10462C005921232A04021DA001468546268502979E
:10463C00FD572A86E313F5FA9C40C5D3754763856D
:10464C00E70059476395E70623A024010145B5A06F
:10465C0098408317C40001CFF5466305D700D946AF
:10466C006319D7041C48232204001CC04DB71848FA
:10467C002322040093D7C74818C041BF83A9050162
:10468C00E38609FC03A905008D8B23A035013309B2
:10469C003941014791E3D84918C4E35920FB1C5414
:1046AC000C50CA864E8626858297634FA0008317CE
:1046BC00C40093E707045EA47D55F2406244D244E3
:1046CC004249B24905618280AA993309A940F1B7E0
:1046DC009C49411106C622C426C281EB8144B240DA
:1046EC0022442685924441018280AA842E8401C5ED
:1046FC001C4D91E30D2A972700009387A7BF631DDC
:10470C00F402C0408317C400F1DB7850058B11E72D
:10471C0093F7072099E3284C692C2685A285EFF0A6
:10472C001FE87C50AA84858BDDFB5E2493F7072061
:10473C00DDF7284C412465B797270000938787B98C
:10474C006314F40080447DBF97270000938787B6DD
:10475C00E31AF4FAC0447DB7411122C406C62A8478
:10476C004EA572A523200500232205002324050055
:10477C002322050623280500232A0500232C0500E7
:10478C00214681451305C505EFB0DFC09717000022
:10479C009387A7F25CD0971700009387A7F41CD4DB
:1047AC0097170000938767F85CD4971700009387DE
:1047BC00A7FAB24000D01CD8224441018280970550
:1047CC000000938525F149A2411126C2930780066A
:1047DC009384F5FFB384F4024AC02E8922C406C622
:1047EC00938544077D2E2A8401CD232005002322A6
:1047FC002501310508C4138684068145EFB09FB9A5
:10480C00B2402285224492440249410182801385A0
:10481C00819745A21385819771AA1385C19751AAD7
:10482C001385C19741AA411122C406C62A84EFF010
:10483C00DFFE1C4C91C72244B24041016FF05FFE79
:10484C00970700009387E7F71CD42324040423263E
:10485C0004042328040483A74195639487008547A7
:10486C001CCC2285152848C022853D2008C42285F1
:10487C00252048C4484001469145EFF0FFED08441F
:10488C000546A545EFF05FED48440946C945EFF0F4
:10489C00BFEC85471CCC45B7411126C24AC006C6A1
:1048AC0022C42A89EFF0BFF683A441959C4C81E782
:1048BC002685EFF05FF7938484048044DC40FD1779
:1048CC0063D607009C40A5C78440C5BF0317C4002E
:1048DC0021EFC17785075CC41305840523220406E8
:1048EC00C128EFF03FF321462320040023240400C9
:1048FC002322040023280400232A0400232C040070
:10490C0081451305C405EFB0FFA8232A0402232C0C
:10491C0004022324040423260404B24022852244E6
:10492C0092440249410182801304840649BF914597
:10493C004A85EFF07FE988C02A8459F5EFF09FEDA6
:10494C00B1472320F900D1BF797122D44AD04ECE81
:10495C0052CC5AC85EC606D626D256CA2A892E8A88
:10496C00130485048149054BFD5B0444832A4400F0
:10497C00FD1A63D00A0200406DF8B25022549254D2
:10498C000259624AD24A424BB24B4E85F2494561BA
:10499C008280DE24637BFB008397E40063877701CE
:1049AC00A6854A85029AB3E9A90093848406C9B7FF
:1049BC008280828082805971A2D42E848395E500F6
:1049CC00A6D2CAD086D6B284368963D205025E24BA
:1049DC0093F7070895EB13070040B6502654232095
:1049EC00F90098C0065996540145656182803000E3
:1049FC00EF00D05BE34D05FC3247BD67F98F79774B
:104A0C00BA9793B71700C1BF814713070004F1B7DA
:104A1C00DE25797122D406D626D24AD04ECE898B89
:104A2C002E8491CF930774041CC01CC885475CC8A6
:104A3C00B250225492540259F2494561828074005A
:104A4C003000AA84EFF03FF7A2492A892685CE854B
:104A5C00892A19E98317C40013F7072071FBF19B0E
:104A6C0093E727005EA47DBF97070000938767D567
:104A7C009CD45E2408C008C893E707085EA4B2471C
:104A8C00232A340181CF8315E4002685EF0090544E
:104A9C0011C55E24F19B93E717005EA45E2433E5F9
:104AAC0027014AA471B7C5C183A7C5FF011122CC48
:104ABC0006CE1384C5FF63D307003E942AC6EF00CD
:104ACC00F057138741981C43324589EB232204008D
:104ADC0000C36244F24005616F00D056637DF40060
:104AEC001040B306C4006396D7009443DC43B296DF
:104AFC0014C05CC0F1BF3E87DC4399C3E37DF4FE78
:104B0C0014433306D700631F86001040B29614C3BB
:104B1C003306D700E39FC7FA9043DC43B29614C325
:104B2C005CC345BF6375C400B1471CC15DB7104081
:104B3C00B306C4006396D7009443DC43B29614C00A
:104B4C005CC040C379B7828041114AC01389019877
:104B5C008327090022C426C206C6AA842E8491E7A4
:104B6C008145EF00D0322320A900A2852685EF00D5
:104B7C0010327D59631A25017D54B240228522449E
:104B8C009244024941018280130435007198E30676
:104B9C0085FEB305A4402685EF00702FE31F25FD8D
:104BAC00E1BF011126CA93843500F1984AC8A104CB
:104BBC00B14706CE22CC4EC62A89B3F4F40A63C49C
:104BCC00040063FDB400B1472320F9000145F24015
:104BDC006244D2444249B24905618280EF001046DA
:104BEC009389419883A709003E8429E8A6854A85C4
:104BFC00EFF09FF5FD572A84631AF50A03A4090008
:104C0C00A287D9EB8329040081454A85A299EF003C
:104C1C0010286396A9081C408D044A859D8CF19838
:104C2C00B147A104B3F4F40AA685EFF0FFF1FD57E8
:104C3C006307F5061C40A6971CC015A01440858E72
:104C4C0063C906042D47637ED70204C03307940062
:104C5C006397870223A0E9005C4014C35CC34A85B8
:104C6C00EF00503E1305B4009307440061993307DD
:104C7C00F540E30EF5F43A94898F1CC089BFD8C374
:104C8C00E1BF58406395870023A0E900C9BFD8C392
:104C9C00F9B7A287404091BF3E84DC439DB7B14732
:104CAC002320F9004A85EF00F0390DB704C145BF48
:104CBC0001114AC803A9850022CC4EC652C456C263
:104CCC0006CE26CA5AC003AA05002E84B28AB6891B
:104CDC0063E526078397C50013F7074829CF584883
:104CEC008D448C49B384E4020947330ABA4093F7E4
:104CFC0007402A8BB3C4E402138716005297B3F40F
:104D0C00E40AA5C7A685EFF0DFE92A8925C90C4876
:104D1C005286EFB02FE95E2493F7F7B793E70708B5
:104D2C005EA42328240144C85299B384444123200F
:104D3C00240104C44E8963F329014E8908404A8634
:104D4C00D685EFB08FE71C440145B38727411CC4BF
:104D5C001C40CA971CC0F2406244D2444249B2493A
:104D6C00224A924A024B056182802686EF00102E61
:104D7C002A8945F90C485A85EFF0FFD2B147232018
:104D8C00FB005E247D5593E707045EA4E9B7DE259E
:104D9C00357122CD26CB4AC952C506CF4EC756C354
:104DAC005AC1DEDEE2DC93F707082A8A2E89B28428
:104DBC003684A1C39C4995EF93050004EFF07FDE88
:104DCC002320A9002328A9000DE1B1472320FA00D4
:104DDC007D55FA406A44DA444A49BA492A4A9A4A01
:104DEC000A4BF65B665C0D61828093070004232AF4
:104DFC00F90093070002A304F1029307000302D207
:104E0C002305F10222C6930B5002971A0000938AD5
:104E1C006A50294B26841C2099C363997709330C5B
:104E2C009440630E9400E2862686CA855285EFF084
:104E3C003FE8FD576307F5189257E2973ED21C20C6
:104E4C0063810718FD579304140002C802CE3ECAB2
:104E5C0002CCA309010482D48C2015465685EF00A0
:104E6C00701CC2471384140021E513F7070109C70E
:104E7C0013070002A309E10413F7870009C71307FE
:104E8C00B002A309E10494201307A0026389E6028F
:104E9C00F2472684814625461820930514001307F3
:104EAC0007FD6372E60685C63ECE15A00504A5B7C0
:104EBC0033055541B397A728A2843EC871BF32472A
:104ECC0093064700184336C6634807023ACE1820AB
:104EDC009307E002631CF70418309307A002631ACF
:104EEC00F702B2470904138747009C433AC67D5723
:104EFC00B3E7E70A3ECA1DA83307E04093E7270053
:104F0C003ACE3EC8E9B7B38767032E848546BA9775
:104F1C0061B7050402CA81468147254618209305CE
:104F2C001400130707FD6374E606E9F60C200D4622
:104F3C00171500001305853EEF00D00E11CD971705
:104F4C0000009387A73D1D8DC2471307000433173C
:104F5C00A700D98F05043EC80C2019461715000070
:104F6C001305053C930414002304B102EF00900BCD
:104F7C002DC19307000095E74247B24713770710FE
:104F8C0009CF91073EC69257CE973ED261B5B387F3
:104F9C0067032E848546BA9751B79D07E19BA107FD
:104FAC00D5B77800970600009386C6D04A860C08C1
:104FBC00528597000000E7000000FD57AA89E31412
:104FCC00F5FC8357C90093F70704E39307E01255E8
:104FDC0009B57800970600009386C6CD4A860C0862
:104FEC0052853922D9BF797156CA9C49BA8A9845DB
:104FFC0022D44AD04ECE52CC06D626D25AC85EC641
:10500C00B3E7E70A1CC203C73504AA892E84328988
:10501C00368A19C385071CC21C4093F7070291C737
:10502C008327090089072320F9000440998891E817
:10503C00130B9401FD5B5C4403270900998F63CC2F
:10504C00F40483473404B336F0001C4093F7070292
:10505C00A5EB13063404D2854E85829AFD57630363
:10506C00F5041C4011478144998B6399E700832711
:10507C00090044449D8C8147B3E4F40A1C4418484D
:10508C006354F700998FBE94014969047D5B639862
:10509C002405014509A885465A86D2854E85829AF3
:1050AC00631E75017D55B250225492540259F24937
:1050BC00624AD24A424BB24B456182808504A5BFFD
:1050CC003307D40013060003A301C7040347540499
:1050DC0093871600A2978906A381E7049DBF854696
:1050EC002286D2854E85829AE30E65FB050945B76B
:1050FC00797122D44AD04ECE52CC06D626D256CA7C
:10510C005AC803C88501930780072A892E84B2895F
:10511C00368A63E20703930720069386350463E11E
:10512C000703630C081C9307800517160000130671
:10513C00A61F6308F814930424042301040515A87E
:10514C009307D8F993F7F70F5546E366F6FE171653
:10515C0000001306E61FB3C7C7209C43B297828793
:10516C001C4393842504938647009C4314C32381DA
:10517C00F50485476DA290411C4313750608938571
:10518C00470029C19C430CC3584063DF07129305A9
:10519C00D002A301B40418C4635E0702B307F04045
:1051AC0017160000130646182948B68433F7070370
:1051BC00FD143297182398A03E87B3D70703E377E3
:1051CC0007FF85A09C43137506040CC355DD93970C
:1051DC0057605DBF6D9A10C0D1B790411C431375D9
:1051EC0006089385470001C50CC39C4331A0137678
:1051FC0006040CC37DDA9E231307F0061716000075
:10520C00130686126310E80C2148A30104045840CD
:10521C0018C4E34C07F80C40ED990CC0D9F7B684D0
:10522C0049F7A147631EF8001C40858B91CB584071
:10523C001C4863C7E70093070003A38FF4FEFD141B
:10524C00858E14C85287CE867000A2854A85EFF0F1
:10525C009FD9FD5A6319550D7D55B2502254925465
:10526C000259F249624AD24A424B456182809C41C2
:10527C0093E707029CC1130880071716000013065A
:10528C00E60BA30204050C401C4313F80508138518
:10529C0047006305080008C39C4339A013F80504B4
:1052AC0008C3E30B08FE9E2313F7150001C793E513
:1052BC0005020CC099C3414889BF18401377F7FD0C
:1052CC0018C0D5BF294891B7171600001306C6059C
:1052DC00294835BF90411C43CC49137806081385E7
:1052EC0047006306080008C39C438CC339A008C35D
:1052FC00137606049C4375DA8EA323280400B68427
:10530C0091B71C43D04181459386470014C3844315
:10531C002685092B01C5B30795405CC05C401CC8B1
:10532C00A301040405B714482686CE854A85029A43
:10533C00E30455F31C40898B85E74844B247336539
:10534C00F50A21BF85465686CE854A85029AE30525
:10535C0065F185045C443247998FE3C5F4FEF1BFD7
:10536C008144930A94017D5BF5B71C46FD171CC65E
:10537C0063DA0700184E63C5E700A9476394F5008C
:10538C006FF04F871C422E851387170018C28CA311
:10539C008280011122CC26CA4AC84EC652C406CEFF
:1053AC002A89AE893284B304D6007D5A63149400E2
:1053BC00014509A80C204E864A85EFF01FFB050419
:1053CC00E31645FFF2406244D2444249B249224AB4
:1053DC0005618280357122CD26CB4AC94EC706CFD6
:1053EC0052C556C35AC1DEDEE2DCAA892E8432894C
:1053FC00B68409C51C4D99E3EFF0EFC29717000076
:10540C00938747EF6318F40403A449007C50858B01
:10541C0081EB5E2493F7072081E7284CEFF06FD9DE
:10542C005E24A18B99C31C48A5E3A2854E85EFF0A1
:10543C002F8839C97C50858BA1C37D55FA406A44AD
:10544C00DA444A49BA492A4A9A4A0A4BF65B665CDC
:10545C000D618280971700009387C7E76315F400EE
:10546C0003A4890065B7971700009387A7E4E31F8F
:10547C00F4F803A4C90059BF5E2493F70720D5FFA5
:10548C00284CEFF02FD355BF93070002A304F10271
:10549C009307000302D22305F10226C6930B500298
:1054AC00971A0000938A0AE7294BCA849C2099C357
:1054BC00639A7709338C2441638E2401E2864A86F1
:1054CC00A2854E85EFF0FFECFD576306F518925759
:1054DC00E2973ED29C2063800718FD571389140075
:1054EC0002C802CE3ECA02CCA309010482D4834571
:1054FC000900154656853D26C2479304190029E537
:10550C0013F7070109C713070002A309E10413F7F6
:10551C00870009C71307B002A309E10483460900F9
:10552C001307A0026389E602F247CA848146254626
:10553C00982093851400130707FD6372E60685C651
:10554C003ECE15A085049DB733055541B397A728CA
:10555C0026893EC869BF324793064700184336C6B2
:10556C00634807023ACE98209307E002631CF704C5
:10557C0098309307A002631AF702B2478904138785
:10558C0047009C433AC67D57B3E7E70A3ECA1DA8BD
:10559C003307E04093E727003ACE3EC8E9B7B3871C
:1055AC006703AE848546BA9761B7850402CA814603
:1055BC0081472546982093851400130707FD6372D5
:1055CC00E606E9F68C200D4617150000130505D5E7
:1055DC00912C11CD97170000938747D41D8DC2478E
:1055EC00130700043317A700D98F85043EC88C20FD
:1055FC001946171500001305A5D2138914002304AE
:10560C00B1020D2435C99307000095E74247B24714
:10561C001377071009CF91073EC69257D2973ED207
:10562C0069B5B3876703AE848546BA9761B79D07A2
:10563C00E19BA107D5B77800970600009386A6D505
:10564C0022860C084E8597000000E7000000FD57ED
:10565C002A8AE314F5FC7C50858B81EB5E2493F74E
:10566C00072081E7284CEFF0EFB45E2493F7070492
:10567C00E39507DC1255D9B37800970600009386A2
:10568C0086D122860C084E85EFF09FA6C9B7411132
:10569C0022C42A842E8523A4019806C6EFC08F8FBE
:1056AC00FD576316F50083A7819891C31CC0B240C7
:1056BC00224441018280411122C42E848395E5004D
:1056CC0006C60124634905007C48AA977CC8B240F1
:1056DC002244410182805E249397C7485EA4C5BFD3
:1056EC00DE25011122CC26CA4AC84EC606CE93F737
:1056FC000710AA842E843289B68991C78395E50058
:10570C0089460146DD285E248315E400F240939718
:10571C00C7485EA46244CE864A86B2494249268571
:10572C00D24405611DA8411122C42E848395E50045
:10573C0006C6E1207D575E246319E5009397C748A0
:10574C005EA4B2402244410182809397C72868C866
:10575C005EA4C5BF8395E5003DA0411122C42A84F7
:10576C002E85B285368623A4019806C6EFB0FFFEBF
:10577C00FD576316F50083A7819891C31CC0B240F6
:10578C00224441018280411122C42A842E8523A403
:10579C00019806C6B522FD576316F50083A78198BC
:1057AC0091C31CC0B240224441018280411122C4E9
:1057BC002A842E85B28523A4019806C6812AFD571A
:1057CC006316F50083A7819891C31CC0B240224494
:1057DC0041018280411122C42A842E8523A4019880
:1057EC0006C61D2AFD576316F50083A7819891C341
:1057FC001CC0B240224441018280411122C42A843F
:10580C002E85B285368623A4019806C6212AFD571B
:10581C006316F50083A7819891C31CC0B240224443
:10582C004101828093F5F50F2A966314C50001455A
:10583C0082801C21E38EB7FE0505C5BF13854197F9
:10584C006FF02F97138541976FF0CF96011126CAF1
:10585C0006CE22CC4AC84EC652C4B28499E96244E0
:10586C00F240D2444249B249224AB28505616FF0F6
:10587C004FB309EEEFF02FA30144F24022856244AE
:10588C00D2444249B249224A056182802A8A2E8436
:10589C00B1282A896366950093571500E3EF97FCAE
:1058AC00A6855285EFF0EFAFAA8979D5A28533D6BC
:1058BC00240BEFA03FAFA2855285EFF0CF9E4E8414
:1058CC006DBF411122C42A842E85B285368623A44D
:1058DC00019806C6B128FD576316F50083A7819879
:1058EC0091C31CC0B24022444101828083A7C5FFF2
:1058FC001385C7FF63D50700AA959C413E9582800E
:10590C009307800523A4F1987D5582809307800529
:10591C0023A4F1987D5582809307800523A4F198E8
:10592C00014582809307800523A4F1987D558280E0
:10593C009307800523A4F1987D5582802573000080
:10594C000D0A3D3D3D3D20536F756E6420456666E6
:10595C006563742047656E657261746F72203D3D9E
:10596C003D3D0D0A0000000053656E64206120640B
:10597C006967697420746F20706C61793A0D0A0044
:10598C0020202575203A2025730D0A0054656D7072
:10599C006F3A20204C20736C6F7765722C20462058
:1059AC006661737465722C202B2F2D207363616CD0
:1059BC00652C20522072657365740D0A000000007E
:1059CC0050697463683A2020552075702C2044204F
:1059DC00646F776E2068616C6620746F6E650D0A5B
:1059EC00000000004F746865723A20206D206D65D0
:1059FC006E750D0A00000000547261636B202575F2
:105A0C0020697320656D7074792E0D0A00000000FA
:105A1C000D0A3E3E3E20506C6179696E67207472AF
:105A2C0061636B2025753A20222573220D0A000034
:105A3C00204E6F7465202532752F25753A2025343C
:105A4C007520487A20286F726967202534752920C3
:105A5C00666F7220253475206D730D0A00000000EE
:105A6C003E3E3E20446F6E652E0D0A0D0A0000006E
:105A7C0054656D706F206F66667365743A20252BC4
:105A8C0064206D730D0A000054656D706F20736394
:105A9C00616C653A20257525250D0A0050697463E3
:105AAC00683A20252B642073656D69746F6E65737D
:105ABC000D0A0000416C6C2073657474696E677319
:105ACC002072657365742E0D0A000000556E6B6EA6
